:020000040800F2
:1000000080060020D9000008791E0008471E00085D
:1000100000000000000000000000000000000000E0
:10002000000000000000000000000000351F000874
:100030000000000000000000C11E0008371F00087B
:10004000EB000008EB000008EB000008EB000008E4
:10005000EB000008EB000008EB000008EB000008D4
:10006000EB00000825030008EB000008EB00000887
:10007000EB000008EB00000800000000EB000008A7
:1000800000000000EB00000800000000000000007D
:10009000EB00000800000000EB000008EB00000887
:1000A000EB000008EB000008EB0000086D250008DD
:1000B000EB000008EB000008EB000008EB00000874
:1000C0000448854600F090F8004800475D28000885
:1000D000C046C046800600200448804704480047C8
:1000E000FEE7FEE7FEE7FEE7FEE7FEE7B11F0008DA
:1000F000C100000830B50B46014600202022012433
:1001000009E00D46D5409D4205D31D469540491B4B
:100110002546954040191546521E002DF1DC30BD94
:10012000F0B51FB40646002082B005464024019178
:1001300000901BE0019922460F46304600F042F83D
:10014000049A059B801A994110D3104619462246FD
:1001500000F028F8361A8F4101972246012000212D
:10016000009F00F01FF838184D4100902046641E93
:100170000028DFDC019B00982946324607B0F0BD1D
:10018000D2B201E00270401C491EFBD2704700222F
:10019000F6E710B513460A4604461946FFF7F0FF86
:1001A000204610BD10B5202A04DB0146203A9140BC
:1001B000002010BD914020239C1A0346E3401943C0
:1001C000904010BD10B5202A04DB0846203AD040EC
:1001D000002110BD0B46D340D0402024A21A9140EC
:1001E0000843194610BD0000064C0125064E05E0E7
:1001F000E36807CC2B430C3C98471034B442F7D348
:10020000FFF762FFCC290008EC29000810B5014671
:10021000806A826D50231A420AD1816D01225202F6
:10022000114381650168CA681205920F05D020E06C
:10023000006D426B0846904710BD026A002A18D133
:100240000A68120715D58A6853070122002B09DBBB
:100250004B680C24A3434B60816D130299431143F7
:10026000816506E0816D202319438165C16D1143CD
:10027000C16500F019F910BD10B5806A816D40228A
:1002800011438165C16D04221143C16500F00EF96F
:1002900010BD10B5806A00F008F910BD38B50446ED
:1002A000064805490068FFF725FF604300E0401E4F
:1002B00000900028FBD138BD40420F0024000020F0
:1002C000F8B50446006881688907890F012902D1C1
:1002D0000168C90722D18168114A10261140012501
:1002E00000290ED18168294381600120FFF7D6FFE4
:1002F00000F034FD07460CE000F030FDC01B0A287A
:1003000007D9A06D3043A065E06D2843E06501206A
:10031000F8BD20680068C043C007EDD10020F8BDDB
:1003200017000080704710B5046863608368102B65
:10033000036803D099600068C26010BD9A600068CD
:10034000C16010BDF8B5054604464035287D00263D
:10035000012808D001202875206881688907890F45
:1003600001290ED101E00220F8BD0168C90708D0BB
:10037000A06D20210843A065012600202875304685
:10038000F8BDA16DFF220132914302221143A16504
:10039000C1688907890F0091C16889088900C16017
:1003A0002068816892071143816000F0D7FC0746FE
:1003B0000EE000F0D3FCC01B0A2809D9A06D022171
:1003C000884310210843A065002028750120F8BD4E
:1003D000206880680028ECDB2068C168009A11431F
:1003E000C160A06D80088000401CA065C5E70000CA
:1003F000F8B506460D464036317D01290DD0012164
:10040000317501688A68520709D5816D2022114330
:100410008165002030750120F8BD0220F8BD204B19
:100420006A68D80547109A421E4C8A6A2B681BD00E
:100430005B035B0B1A438A622968490305D5A168EF
:100440000143A1600A20FFF729FF2868800302D535
:10045000A0683843A0602868C0031DD5A0680121AA
:1004600009060843A06017E05B035B0B9A438A62AE
:100470002968490302D5A1688143A16028688003E7
:1004800002D5A068B843A0602868C00304D5A1685D
:10049000012000068143A16000203075F8BD0000F6
:1004A00001100000002701407047704770470000AE
:1004B00070B5040006D0A06D264600254036002801
:1004C00002D006E0012070BDE5653575204600F0DC
:1004D000D1F8A06DC00603D421688868400705D50F
:1004E000A06D10210843A0653575EBE7A06DFF22D4
:1004F0000132904302221043A06588688207920F60
:100500005A48012A02D10A68D2072BD10323626814
:100510009B079A4205D05B429A4202D05B009A4206
:1005200009D10A69920092080A6121680A69636820
:100530001A430A610CE00A69920092080A61816814
:100540000F22920491438160816862681143816047
:100550002168CA6818239A43CA602168CA68A368D8
:100560001A43CA6081680122520691438160816802
:10057000228F52061143816020688168C90004D42B
:10058000816801221207114381602068C168384ADE
:100590001140C1602169E068022923D0002108438D
:1005A000216A226B4903520011430843616B0843DF
:1005B000A16989030843E169C90308432168CA683E
:1005C0001043C860A06A0146FF39C23905D0E16A0C
:1005D00008432168CA681043C860606A0121012885
:1005E00002D00BE00421DAE7206A002823D0A06DB6
:1005F00020221043A065E06D0843E065206C0128CF
:1006000020681FD00169C90703D001694908490062
:10061000016120684169C908C900416120684169D8
:10062000E26B11434161E565A06D80088000401CCC
:10063000A065002070BD2068C26801231B041A4316
:10064000C260DBE70269FF239B009A4302612068D6
:100650000269636CE66C1A43A36C33431A4302616C
:10066000206802690A430261D3E7000000270140C5
:100670001902FEFFF0B5234987B0CA6A054601207A
:100680000243CA62CA6A02400592CB6A042213433B
:10069000CB62CB6A134005934A6B460232434A63EE
:1006A0000A6B02430A63086B0324C007C00F05905E
:1006B000302000276A4691C205206946000700F0F5
:1006C0008BFA0094694610480297019400F084FA6E
:1006D0000F4C0E48A760E7602060802066612061B3
:1006E0000001A0612020E061C00167602062204617
:1006F00000F0D2F8204600F0B9F92C65A56207B0E9
:10070000F0BD000000100240000800500800024048
:100710002C000020F7B504460068002580684007DB
:100720003DD426464036307D01280AD00127377552
:10073000E069012807D02046FFF7C2FD050002D07E
:100740002EE00220FEBDA06D16490840FF210131B8
:100750000843A0650020E0653075216D1248C8622D
:10076000216D12480863216D1148486321681C20DF
:100770000860206841681022114341602068C16808
:100780003943C1602168206D4031029B019A00F01D
:10079000F1F92068816804221143816000E002259C
:1007A0002846FEBDFEF1FFFF0D020008930200087F
:1007B00079020008F8B50446006801684908490054
:1007C000016000F0CBFA00272546064620350EE0F2
:1007D00000F0C4FA811B7D20C000814207D9E06B84
:1007E00020210843E0632F7103206871F8BD206861
:1007F0000068C007ECD12F71012068710020F8BD9E
:1008000070B50024024620325179022903D0042118
:10081000C16301243CE001680B680E25AB430B600B
:1008200001680B685B085B000B601A4B016899421A
:1008300001D1012121E0174B1433994201D110213C
:100840001BE0144B2833994201D1891515E0114B57
:100850003C33994201D189140FE00E4B5033994239
:1008600002D10121090408E00A4B6433994202D104
:100870000121090501E001210906064B083B5960E9
:100880000121517100211171816B002900D088472D
:10089000204670BD08000240F0B5002821D0014676
:1008A00020318C46497902291BD001680A68520818
:1008B00052000A60026800211160026851600268FB
:1008C00091600268D160684C674D674E664F664A1A
:1008D0000168143428353C365037914203D1012346
:1008E0001DE00120F0BDA14201D1102317E0A94273
:1008F00002D1FF23013312E0B14202D101231B03D5
:100900000DE0B94202D101231B0408E0564B6433C9
:10091000994202D101231B0501E001231B06524924
:1009200008394B600168914201D102231BE0A142CA
:1009300001D1202317E0A94202D101235B0212E07A
:10094000B14202D101235B030DE0B94202D1012380
:100950005B0408E0444B6433994202D101235B05F8
:1009600001E001235B06404908394B600168914270
:1009700001D108231BE0A14201D1802317E0A94245
:1009800002D10123DB0212E0B14202D10123DB03D9
:100990000DE0B94202D10123DB0408E0324B64339D
:1009A000994202D10123DB0501E00123DB062E4938
:1009B00008394B600168914201D104231BE0A14238
:1009C00001D1402317E0A94202D101239B0212E08A
:1009D000B14202D101239B030DE0B94202D10123B0
:1009E0009B0408E0204B6433994202D101239B050C
:1009F00001E001239B061C4908394B601A49036832
:100A00007831934203D18A6A1209120124E0A34289
:100A100002D18A6AF0231EE0AB4203D18A6A0F2317
:100A20001B0218E0B34203D18A6A0F231B0312E0B2
:100A3000BB4203D18A6A0F231B040CE00A4A6432CA
:100A4000934203D18A6A0F231B0504E08B4204D131
:100A50008A6A0F231B069A438A620021C16360469B
:100A6000417101710846F0BD0800024070B50028D0
:100A700005D0034620335979002902D003E0012034
:100A800070BD00211971022159710468226837492B
:100A9000C5680A4081684669294305693543294389
:100AA00085692943C5692943056A294311432160A2
:100AB0002F492F4C02687831A24206D18A6A120966
:100AC00012018A628A6A406849E0294C1434A242C1
:100AD00007D18A6AF024A2438A628A6A40680001C8
:100AE0003DE0234C2834A24208D18A6A0F24240214
:100AF000A2438A628A6A4068000230E01C4C3C349F
:100B0000A24208D18A6A0F242403A2438A628A6A15
:100B10004068000323E0164C5034A24208D18A6A90
:100B20000F242404A2438A628A6A8088000416E0A3
:100B30000F4C6434A24208D18A6A0F242405A243D0
:100B40008A628A6A8088000509E08A4209D18A6A35
:100B50000F242406A2438A628A6A007900060243AF
:100B60008A6201205871002070BD00000FC0FFFF95
:100B700008000240F8B5044620300579012D1ED04A
:100B8000012505710226467120680768AF4307609A
:100B90002046FFF7C8FB20680168314301602068E8
:100BA0000168042211430160206801680822114392
:100BB000016020680168294301600020F8BD02201F
:100BC000F8BD31B500F0CAF8044600F0C7F8009946
:100BD000001B8842F9D338BDF8B500230124A2E0F8
:100BE00027469F403A4070D04D68022D01D0122D0B
:100BF00014D1DD08AD002D1800952D6A5E07AC46B6
:100C0000F50E0F26AE46AE406546B543AC460E69BE
:100C10007546AE4065462E43009D2E624D68012DFF
:100C200005D0022D03D0112D01D0122D16D18568CB
:100C30000326AC465D00AE46AE406546B543AC46C5
:100C4000CE687546AE4065462E43866046680D798F
:100C5000BE43ED06ED0F9D403543456006685F00DD
:100C60000325BD40AE46AE430D79B446AE07B60F80
:100C7000BE4065462E430660C6687546AE438D6825
:100C8000BD403543C5604D68ED004BD5294D6E6BB9
:100C900026436E639E08284DB6007519AC46AD68B4
:100CA0009E07360F0F27B740BD4305273F07B842C1
:100CB00001D1002715E0214FB84201D1012710E0F2
:100CC0001F4FB84202D102270BE02BE01D4FB84264
:100CD00001D1032705E01C4FB84201D1052700E0F0
:100CE0000627B7402F436546AF60184D2E684F6802
:100CF0009643FF0300D516432E606E684F689643F7
:100D0000BF0300D516436E60AE684F689643FF027E
:100D100000D51643AE60EE684F689643BF0200D51B
:100D20001643EE605B1C0A681546DD4000D057E7AD
:100D3000F8BD000000100240000001400004005017
:100D400000080050000C0050001C0050000401403E
:100D5000002A01D0816170478162704701480068B4
:100D6000704700002800002002480168491C01600B
:100D7000704700002800002010B506480168402296
:100D800011430160002000F007F800F0A2F90020F4
:100D900010BD00000020024010B5044607487D2128
:100DA000C9000068FFF7A6F900F082FE0022214684
:100DB000501E00F099F9002010BD00002400002012
:100DC000F8B5044605462034607D012804D0607DD6
:100DD000022801D00120F8BD207D012808D0012083
:100DE000207502206075FFF7B9FF074600260DE069
:100DF0000220F8BDFFF7B2FFC11B7D20C000814279
:100E000004D90220A86326750320F8BD28688068ED
:100E1000C0434007EED5002081002A6814315650A7
:100E2000401C0F28F8D9284600F0F2F80020F8BD41
:100E3000F8B500250446002806D026462036707DE9
:100E40000027002802D005E00120F8BD37752046B4
:100E500000F06CF8022070752068016849084900AC
:100E60000160A800216814300F506D1CEDB20F2DE9
:100E7000F7D920688168042211438160A168606805
:100E8000E26A0843A16A11430843E1690843216A01
:100E90000843A1690843616A084321684A68224BF4
:100EA0001A4010434860204600F0CEFF2169E068F8
:100EB000226B084361691143084321680A68FE23D5
:100EC0009A431043086020680168012211430160C1
:100ED000FFF744FF054608E0FFF740FF411B7D2078
:100EE000C000814201D9082010E020688068C0431A
:100EF000C007F1D1FFF732FF05460AE0FFF72EFFEA
:100F0000411B7D20C000814203D91020A063032033
:100F1000F8BD20688068C043C006EFD4A7630120F5
:100F200070750020F8BD00000F0000FCF0B50068EF
:100F300034499DB0884263D1334CA06B21040843EF
:100F4000A06300F0D5F8304D403529690120C00478
:100F500001432961296981432961A06B6115084317
:100F6000A063002608200F9601270590079705A883
:100F700000F074FB002800D0FEE7286928612020DB
:100F800013900003149013A800F08CF9E06A384322
:100F9000E062E06AC007C00F1C90E16A02200143D2
:100FA000E162E16A052501401C91CE21009101908A
:100FB0002D0702960497039669462846FFF70CFE14
:100FC0003B20124E009069463046FFF705FE072091
:100FD0000002009069462846FFF7FEFD01246402E6
:100FE000694630460094FFF7F7FD600000906946BF
:100FF0002846FFF7F1FD694630460094FFF7ECFD07
:101000001DB0F0BD0024004000100240000400505C
:10101000F8B5044621680820C86020688168042764
:1010200039438160FFF79AFE2546064620350BE0DE
:10103000FFF794FE811B7D20C000814204D9A76385
:10104000002028750320F8BD20688068C043000791
:10105000EED40120687500202875F8BDFFB5044660
:1010600005462034607D81B0012805D0607D0228CE
:1010700002D0012005B0F0BD607D01281DD1207D8A
:10108000012807D00120207502276775FFF766FE4B
:1010900006460DE00220EDE7FFF760FE811B7D2094
:1010A000C000814204D9AF63002020750320E1E72E
:1010B00028688068C0434007EED502982A688000FF
:1010C00014301158039B1940049B19431150002000
:1010D000D0E77047C106C90E012088400149086069
:1010E0007047000000E100E010B500F0C7FE10BD41
:1010F000024801688215114301607047007000408A
:10110000F8B501265E490746F602002035015B4B23
:101110005B4A4031102F6ED011DC012F6FD0022FAF
:101120006BD0042F6AD0082F1CD1C9680324240374
:10113000214073D0BD026C10A94274D097E0514C8D
:10114000202F03D0402F2FD0B7420BD10B69096954
:1011500003263604012731403F04B94203D19905E3
:1011600059E02846F8BD01256D04A94203D199072D
:10117000F8D54548F8BDB142FCD111688903F9D5CD
:10118000116803200005014001200005091A09D05B
:10119000091A05D0814201D13C48F8BD2046F8BD6E
:1011A0003B48F8BD3B48F8BDC9680125AD0629405C
:1011B00006D0A942F7D191688907F4D53648F8BD21
:1011C00011688901FBD5D068D1688002334D000FCA
:1011D0002D5C0802810FD068491CC00306D410683A
:1011E000C00601D5204602E0184600E02C486843BE
:1011F000FEF780FFF8BD3DE001E01CE029E0CC688F
:10120000A407A40F0CD0022C0DD0012C10D0032C5D
:10121000F0D1096989050029A3DBEBE716E002E0BC
:1012200000F0D0F9E6E711684907E3D51846E1E791
:1012300000F0D8F9DEE7CC680C26344006D0082C44
:10124000F1D0042CF4D00C2CE3D0D3E700F0AAF9B1
:10125000D0E7CC680327BF023C40F7D0B442E2D0CD
:10126000012292029442E3D0BC42D2D0C2E7A14212
:10127000DED0BFE7916B4902E8D4BBE70024F4005D
:101280000010024000093D008890000020A10700E6
:1012900040420F0080841E00006CDC02B829000868
:1012A00000127A00F8B504460068614D810601D449
:1012B00000057DD55E4E0027403EB06BC00004D4D3
:1012C000B06B31040843B06301275A480168C9056F
:1012D00011D40168821511430160FFF73FFD0090B2
:1012E00005E0FFF73BFD0099401A642844D85148B7
:1012F0000068C005F5D5316803200005626801402B
:101300001040884205D10323A0681B05184088427D
:1013100008D09003800F032804D13068800301D5E2
:101320000120F8BD286903210904084029D00A409A
:10133000824202D02278920606D4A2680A408242F3
:101340001FD0208800051CD528692A6988430121FF
:10135000C9040A432A612A698A432A612861C005AF
:101360000FD5FFF7FBFC009008E0FFF7F7FC0099B2
:10137000411A3148814201D90320F8BD286980050E
:10138000F3D561688803800F032805D13268000512
:10139000824301400A4332602869032261681204D3
:1013A000114008432861002F06D0B16B012000E0F6
:1013B00002E000078143B1632078C00705D0E868E8
:1013C000E168800880000843E8602078800705D540
:1013D000E8680C21884321690843E86020784007C9
:1013E00006D5E86803218902884361690843E860FB
:1013F0002078000706D5E868032109038843A1691E
:101400000843E8602078400606D5E868012189068F
:101410008843216A0843E8602078000606D5E8681A
:10142000032189048843E1690843E8600020F8BD8E
:10143000401002400070004088130000F8B50546D7
:1014400053480E460068C007C00FB0420AD2504849
:10145000016849084900314301600068C007C00FB6
:10146000B0426FD128784B4C800705D5E068F02159
:101470008843A9680843E0602878C00752D06868AC
:10148000022817D0032818D02168012818D0890510
:10149000002957DAE168890889000143E160FFF714
:1014A0005DFC69680746022912D003291CD0012976
:1014B00026D033E021688903EAE721688901E7E75C
:1014C0004907E5E7FFF74AFCC11B3348814223D8AF
:1014D000E0680007800F0228F4D123E0FFF73EFC0C
:1014E000C11B2D48814217D8E0680007800F0328F0
:1014F000F4D117E0FFF732FCC11B274881420BD81B
:10150000E0680007800F0128F4D10BE0FFF726FC0C
:10151000C11B2148814201D90320F8BDE0680007C2
:10152000800FF3D11A480168C907C90FB1420BD91E
:10153000016849084900314301600068C007C00FD5
:10154000B04201D00120F8BD2878400706D5E068F8
:10155000072109028843E9680843E060287800070A
:1015600007D5E0680721C90288432969C9000843F3
:10157000E06000F037F8E168084A0906090F515C9D
:10158000C840074908600020FFF706FC0020F8BDAE
:10159000002002400010024088130000A829000823
:1015A00024000020044805490068C968044A490528
:1015B000490F515CC84070472400002000100240D1
:1015C000C1290008044805490068C968044A89041B
:1015D000490F515CC84070472400002000100240B1
:1015E000C129000810B5184AD1680C200840042809
:1015F0000BD0082810D00C2810D050680004410FE0
:101600000120C003491C884010BD1068C00601D5E8
:101610000E4810BD0E4810BD0E4810BD88020E4B7E
:10162000000F185C0902D368890F491CDB0301D540
:10163000084A05E01268D20601D5044A00E0044ACF
:101640005043FEF757FD10BD0010024000093D0059
:101650000024F40000127A00B8290008F8B5044606
:101660000078FE4DC0074AD0E8680007800F0228C6
:1016700007D0E8680007800F032809D1E868C00395
:1016800006D5286880033AD56068002873D036E014
:10169000012062680004824203D129680143296065
:1016A00011E0052301211B0489049A422A6802D112
:1016B0000A432A60F1E782432A602A6802400092C6
:1016C000286888432860606800280CD0FFF746FB34
:1016D000064604E0FFF742FB801B64287ED828689A
:1016E0008003F7D50BE0FFF739FB064604E0FFF770
:1016F00035FB801B6428F1D828688003F7D4207854
:10170000800741D5E8681F270007800F3F020128A6
:1017100007D0E8680007800F032809D1E868C003F4
:1017200006D42868400717D5E068012823D113E0C4
:10173000E068002817D029680922914301432960F5
:10174000FFF70CFB064604E0FFF708FB801B0228AE
:10175000C4D828684007F7D568682169B8430902EA
:101760000843686010E02868400840002860FFF7E0
:10177000F5FA064605E095E0FFF7F0FA801B02282F
:10178000ACD828684007F7D42078C00672D5E8683E
:10179000B34E0007800F0AD0E06900282868B149DD
:1017A0005AD008432860FFF7D9FA074644E0286872
:1017B000800502D5E069002874D0606A696831400C
:1017C000884212D900F07EFB0028AFD16868616AB8
:1017D000B043084368606868000200E0DCE0218CE8
:1017E000000A0906084368600FE06968B1430143D5
:1017F00069606868218C0002000A09060843686075
:10180000606A00F05FFB002890D1606A410B012004
:10181000C003491C8840E96809060A0F9249895C9F
:10182000C840924908600020FFF7B6FA22E0FFF7AF
:1018300095FAC01B02288BD828688005F7D5686800
:10184000616AB043084368606868218C0002000A3E
:101850000906084368600DE088432860FFF77EFAB8
:10186000064604E0FFF77AFA801B022888D8286829
:101870008005F7D420787E4E000723D560690028C4
:10188000306910D0012108433061FFF767FA07463D
:1018900004E0FFF763FAC01B02287DD83069800797
:1018A000F7D50FE001E1400840003061FFF756FA3C
:1018B000074604E0FFF752FAC01B02286CD83069D3
:1018C0008007F7D42078400760D5A86B0027C000B8
:1018D00005D4A86B012109070843A86301276548BF
:1018E0000168C90511D40168821511430160FFF731
:1018F00035FA009005E0FFF731FA0099401A6428A4
:101900004AD85C480068C005F5D55648A2688242AE
:1019100003D131690143316111E001218902002ABB
:1019200007D005231B029A4203D132690A43326170
:10193000EFE7326982433261306988433061A068E1
:1019400000280ED0FFF70AFA009006E0FFF706FA2B
:101950000099411A484881421ED830698005F5D562
:101960000DE0FFF7FBF9009006E0FFF7F7F90099AB
:10197000411A414881420FD830698005F5D4002FC3
:1019800004D0A96B012000078143A9632078800659
:1019900030D53A48421400E080E0A169002916D011
:1019A000AB6801210B43AB606B6B0B436B63016A4C
:1019B00011430162FFF7D2F9064604E0FFF7CEF9C2
:1019C000801B02286AD8A8688007F7D512E0A968AA
:1019D00049084900A960016A91430162FFF7BEF915
:1019E000064604E0FFF7BAF9801B022856D8A8681B
:1019F0008007F7D4A06A002855D0E9680907890F45
:101A0000032952D0012636060228286805D0B043A3
:101A10002860FFF7A3F9044642E0B0432860FFF7CF
:101A20009DF9074604E0FFF799F9C01B022835D855
:101A300028688001F7D4216BE06AEA680843616B8B
:101A4000FD231B049A4311430843E8602868304390
:101A50002860FFF783F9044617E0000000100240F9
:101A600000E0000000010000A82900082400002078
:101A70004010024000700040881300000000014048
:101A8000FFF76CF9001B022808D828688001F7D5F9
:101A900009E0FFF763F9001B022801D90320F8BD14
:101AA00028688001F5D40020F8BD0120F8BD7047FA
:101AB000094910B5401E884201D9012010BD074CCC
:101AC00060610321081F00F0D9F90020A061072000
:101AD0002061002010BD0000FFFFFF0000E000E0DB
:101AE00010B5FFF7E4FF10BD704770B504466030D5
:101AF0000546407A21280FD12068816809060BD558
:101B00008168802291438160206E002801D0FEF719
:101B100051FE204600F06FFBA87A22280FD12068E2
:101B2000816849060BD58168402291438160606ECF
:101B3000002801D0FEF73EFE204600F04DFB0020BD
:101B400070BD7047F8B502680446D0691168060791
:101B5000360F07D1830605D58B0603D5204600F046
:101B600053FBF8BD95682023002E65D0EE07F60FD5
:101B7000FF2721370F4037435ED0C70706D0CF0578
:101B800004D501271762E26E3A43E266820708D560
:101B9000EA0706D0276802223A62E26E04273A4337
:101BA000E266420708D5EA0706D0256804222A62C1
:101BB000E26E02252A43E266020709D50A461A4068
:101BC000324305D0236808221A62E36E1343E366AA
:101BD000E26E002AC5D0800604D5880602D52046CC
:101BE00000F012FBE06E000703D420688068400616
:101BF0001CD5204600F0F0FA20688168490611D50E
:101C0000826840218A438260606E00280AD01D49A4
:101C10008163606EFEF7F4FD0028A2D0606E816BD8
:101C20008847F8BD2046FFF78CFFF8BD2046FFF738
:101C300088FF0020E066F8BD2646C7026036002F08
:101C40000ADA6D0208D50120000510627372B372C2
:101C50002046FFF749FFF8BD050605D50D0603D55B
:101C6000204600F01FFCF8BD4006FCD54806FAD51A
:101C70002046146840218C431460737200F0E2F82F
:101C8000F8BD00003121000870B5040005D02546DC
:101C90006035687A002802D006E0012070BD00207F
:101CA0002872204600F026F8242068722068016817
:101CB000490849000160606A002802D0204600F00F
:101CC000A1F9204600F0E0FA0128E7D02068416839
:101CD0000922D20291434160206881682A229143FF
:101CE000816020680168012211430160204600F0F4
:101CF000EFF970BD70B586B0064614216846FEF750
:101D000046FA2149306888423CD12049486B01227B
:101D1000920310434863086B012210430863086B69
:101D200010400590CA6A02200243CA62C96A0025AF
:101D300001400591C0210091019002950395049501
:101D400069461348FEF748FF134C12482060A5600F
:101D50000320E56060606561A5618020E561206128
:101D6000400120622046FEF781FE002800D0FEE7F9
:101D70007466002202211B20A662FFF7B5F91B2022
:101D8000FFF7A8F906B070BD00380140001002400E
:101D9000000400503000024028020020F8B505463B
:101DA00004466035A87A202841D100290BD0002AAA
:101DB00009D00123A0681B03984206D1206900289E
:101DC00003D1C80701D00120F8BD287A01282ED000
:101DD000012028725820616502530026E666222001
:101DE000A872616E1348C862616E13480863616E21
:101DF00012484863606E13468663676D21683A46F1
:101E00002431606EFEF7B6FE2E7220680168FF2254
:101E10000132114301602068816801221143816011
:101E2000206881684022114381600020F8BD0220B3
:101E3000F8BD00008F210008CF21000845210008CF
:101E4000704770477047FEE770B50446FEF786FF9F
:101E50007D260546F60008E0FEF780FF401BB042F5
:101E600003D90120A063032070BD20688068C043AF
:101E70008006F1D4002070BD704700008307FF2268
:101E8000DB0E9A408907090E994000280BDA0007FB
:101E9000000F0838830808489B001818C36993434B
:101EA0000B43C3617047830804489B001B181868E4
:101EB000904308431860704700ED00E000E400E044
:101EC0007047000070B517490023CA681206120F48
:101ED00018D18A6B154CD500134A02D512682240DE
:101EE00009E08E6B01252D072E438E6312688E6BE1
:101EF0002240AE438E63A24204D10321890388426B
:101F000000D101230A4801684908490019430160CA
:101F10000068C007C00F984201D0012070BD0020AA
:101F200070BD00000010024000700040001800006A
:101F300000200240704710B5FEF716FFFFF7D0FDF6
:101F400000F0B8FC10BD000010B594B03821684610
:101F5000FEF71DF914210EA8FEF719F913480168C0
:101F60000322D2029143C21489180160102000900C
:101F700001200790052000244003099008940A944A
:101F80006846FFF76BFB002800D0FEE70F200E909D
:101F90000F9410941194002112940EA8FFF74EFA9A
:101FA000002800D0FEE714B010BD00000070004013
:101FB00010480168821511430160C1680E4A114042
:101FC000C16001680D4A11400160816849084900FB
:101FD000816001680122920491430160C168FD2281
:101FE00012049143C160002101610549C00388606A
:101FF00070470000001002400C40FF88F6FFF6FE1C
:1020000000ED00E010B5818CC90707D001684A686F
:1020100001235B049A43836A1A434A60818C8907CF
:1020200007D501684A6801231B049A43C36A1A430F
:102030004A60818C490707D501684A6801239B04DF
:102040009A43036B1A434A60818C090707D50168DC
:102050004A680123DB039A43436B1A434A60818C2D
:10206000C90607D50268916801231B039943836B56
:1020700019439160818C890607D501688A6801231C
:102080005B039A43C36B1A438A60818C490612D55D
:1020900003685A6801210905046C8A4322435A6087
:1020A000026C8A4207D10268516803235B05994399
:1020B000436C19435160818C090607D501684A6851
:1020C0000123DB04806C9A4302434A6010BD000088
:1020D000F8B500260446C666FEF740FE05462068B1
:1020E0000068124F000709D501212B46002249053F
:1020F0002046009700F009FA00280DD120680068FA
:1021000040070BD501212B46002289052046009768
:1021100000F0FBF9002801D00320F8BD2020603436
:102120006072A07226720020F8BD0000FFFFFF0160
:1021300010B5806A0022014640314A834A82FFF787
:1021400000FD10BD70B5846A25466035687A0026AA
:10215000212808D120688068000604D55220065343
:10216000204600F048F8A87A222808D12068806824
:10217000400604D55A200653204600F02DF8E06EA4
:1021800010210843E0662046FFF7DBFC70BD10B568
:1021900001460968806A0968890615D400225A2117
:1021A0000A5201680A68FF2301339A430A600168F2
:1021B0008A68520852008A6001688A6840239A43FC
:1021C0008A6020226A210A54FFF73AFE10BD10B53A
:1021D000806AFFF736FE10BD01680A68FF232133CD
:1021E0009A430A6001688A68520852008A60202176
:1021F00060308172704701680A68C0239A430A60A0
:10220000202160304172704770B50246403201466D
:102210006031938B8D7A0C460168222D05D0886938
:10222000082210438861022070BD496A0126856832
:10223000360389B2B54202D10569002D0BD0194091
:10224000436D5D1C45651970518B491E0904090CCD
:10225000518307D015E0456D19402980416D891CD7
:102260004165F1E701680A68FF2321339A430A6058
:1022700001688A68520852008A602021A172FFF723
:10228000DFFD002070BD0000FEB5044601688068D7
:102290002269E36910436269102700261A4310433C
:1022A0000A683546754B1A4002430A602068416847
:1022B000032212039143E26811434160704A21688E
:1022C000A069914201D0226A10438A680B231B0245
:1022D0009A4302438A606B4A21686B4891420CD151
:1022E000C0688007800F06D001283DD0022839D071
:1022F000032820D11EE001271DE0644A91420AD143
:10230000C0680C2108402BD004282DD0082829D0E3
:102310000C2810D10EE05A4A91420CD1C16803201A
:10232000800201401CD01015091A1DD0091A19D0BD
:10233000814200D108270220FEF7E2FE0190504BB7
:10234000514922684039D81300929A4235D1002F62
:102350000CD0022F0DD0042F12D0082F1CD113E067
:102360000027E8E70227E6E70427E4E7FFF71AF982
:1023700008E00868C00601D5454805E0454803E087
:10238000FFF730F9002873D062685100511881427C
:1023900002D81103814201D2012569E0010E060233
:1023A0005008002330185941FDF7BAFE03210902F5
:1023B000394A411A914259D9EEE7E26982422DD158
:1023C0003B0000F0F7F80906080B24192424241F09
:1023D0002400019812E0FFF7F5F80FE00868616843
:1023E000C00602D548082D4A01E02D4A4808801849
:1023F000FDF780FE86B20BE0FFF7F4F8616840005D
:102400004A08F4E76168012248081204EFE7012551
:10241000310909013007400F084327E03B0000F075
:10242000C9F809070A0D061D060606290600B3E7C6
:10243000FFF7B8F814E0FFF7C5F811E00868616825
:10244000C00602D54A08124801E012484A0810188E
:10245000FDF750FE81B20098C16009E0FFF7C2F8B5
:1024600061684A088018FDF745FE80B22168C8609F
:102470002846FEBD61684A08E9E70000F369FFEFFE
:102480000048004000380140401002400044004035
:1024900000093D000024F400FFFC0F0000127A0048
:1024A0000048E8016921095C212901D00220704718
:1024B00002464032518A002912D0012381681B0351
:1024C000994202D10169002915D0C16C4B1CC3642B
:1024D000006809788162508A401E5082002070474F
:1024E00001680A6880239A430A60006801684022F4
:1024F00011430160F2E7C16C03680988C905C90D81
:102500009962C16C891CC164E5E7FFB581B01746CB
:102510000E4604460A9D1DE0681C1BD0002D05D008
:10252000FEF71CFC0499401AA84213D920680168E0
:10253000FF22A13291430160206881684908490067
:102540008160202060346072A0720020207203201D
:1025500005B0F0BD2068C1693046884304D0002032
:10256000B842D9D00020F3E70120F9E710B50F48B1
:102570000068C169C943C90613D4102101620B4820
:102580007030006840681421081A0949087007482B
:10259000FFF7ABFA05491422B0310448FFF7FEFB00
:1025A00010BD0248FFF7CEFA10BD0000B8010020B0
:1025B0002000002030B47446641E2578641CAB42B1
:1025C00000D21D46635D5B00E31830BC184702E093
:1025D00008C8121F08C1002AFAD1704770470020AE
:1025E00001E001C1121F002AFBD1704710B52E482F
:1025F000FEF740F82C482D49B03801600021032235
:10260000920701644260C16101228161826381603D
:102610000261C16002234162C3630262C16204219C
:1026200002634161FDF744FF002800D0FEE71E4829
:102630000021B038FDF786FE002800D0FEE71D4CD3
:102640001B48206018482146B038FDF7D1FE00280D
:1026500000D0FEE71848206013481649B038FDF74F
:10266000C7FE002800D0FEE7144820600E4811493C
:10267000B038FDF7BDFE002800D0FEE7104820600E
:1026800009480C49B038FDF7B3FE002800D0FEE73A
:1026900005491422503908466038FEF73BF80028F7
:1026A00000D0FEE710BD00001C0100200024014006
:1026B0001000001018000020200000140004002862
:1026C0000008002C10B5FEF757FBFFF73DFC10BDCE
:1026D000F8B500231A4619462448FEF7BFFC00232C
:1026E0001A4602212148FEF7B9FC00231A460421AC
:1026F0001E48FEF7B3FC00231A4606211B48FEF7CE
:10270000ADFC1A48FEF784FCFF24194DC1340022A9
:1027100021462846FEF71CFBFF262D363046FEF7E5
:1027200050FA144F00223B4611461048FEF796FC23
:102730003B46002202210D48FEF790FC3B4600225A
:1027400004210A48FEF78AFC3B460022062107487E
:10275000FEF784FC0548FEF75BFC01222146284673
:10276000FEF7F6FA3046FEF72CFAF8BD7C010020A1
:1027700000080050FF0F000070B586B014216846B5
:10278000FDF705FD1048C26A04210A43C262C26A0D
:102790000A400592C16A01242143C162C06AFF2533
:1027A00020400A4EC1350590002229463046FEF7EA
:1027B000CFFA0021029103910095019469463046B9
:1027C000FEF70AFA06B070BD001002400008005083
:1027D00010B5FFF70BFF002010BD10B500F014F886
:1027E000002010BD10B5FFF7C7FF002010BD10B5C9
:1027F00000F084F8002010BD0020704700207047D2
:10280000002070470020704710B51348114901603F
:102810000121C90541600C22C26000218160402273
:1028200002610522416192028261C161816270226E
:10283000C162026201630122426220304175203888
:10284000FEF774FB0448FEF7F3FA0348FEF7B8FA04
:1028500010BD0000002400407C010020FFF732FF83
:1028600000F016F800F038F8FCE700207047002070
:10287000704700207047002070470020704710B557
:10288000FFF726FF002010BD002070470020704792
:1028900070B5074D0024A000285881680448083806
:1028A0008847641CE4B2042CF5D3002070BD0000FE
:1028B0000800002070B5074D0024A0002858C1680A
:1028C000044808388847641CE4B2042CF5D300207F
:1028D00070BD00000800002070B5074D0024A00066
:1028E00028580169044808388847641CE4B2042C5D
:1028F000F5D3002070BD00000800002010B5114C79
:102900000F4820604B20C00160600020A060E060A4
:102910002061A0610C2060612046FFF7B5F9002816
:1029200000D0FEE721681020086221680A6802438F
:102930000A6004491422B0310248FFF72FFA10BD93
:1029400000380140B8010020002070470020704787
:1029500000207047002070476B28000849290008B4
:10296000D1270008F92700087B2800086F280008F5
:102970004D290008DB270008FD2700087F280008F4
:102980007328000851290008E527000801280008DD
:10299000892800087728000855290008EF27000833
:1029A000052800088D280008000000000000000035
:1029B0000102030406070809030406080C10182086
:1029C000300000000001020304000000EC290008B0
:1029D000000000202C000000CE250008182A000866
:1029E0002C00002054060000DE2500080000000036
:1029F000000000006C2900088029000894290008C4
:102A0000582900080000000000000000000000003D
:082A100080841E00000000009C
:04000005080000C12E
:00000001FF
